:020000041000EA
:1000000000B5324B212058609868022188439860DF
:10001000D860186158612E4B002199600221596106
:100020000121F02299502B49196001219960352056
:1000300000F044F80222904214D00621196600F024
:1000400034F8196E01211966002018661A6600F04E
:100050002CF8196E196E196E052000F02FF8012189
:100060000842F9D1002199601B49196000215960AB
:100070001A491B48016001219960EB211966A021F2
:10008000196600F012F800219960164914480160C1
:100090000121996001BC002800D000471248134993
:1000A000086003C880F30888084703B5996A0420EC
:1000B0000142FBD001200142F8D103BD02B5186610
:1000C0001866FFF7F2FF186E186E02BD00000240BE
:1000D000000000180000070000035F00212200005C
:1000E000F4000018222000A00001001008ED00E03C
:1000F00000000000000000000000000074B24E7A12
:1001000000200420F7010010CB010010CD010010E9
:10011000C9010010C9010010C9010010C901001077
:10012000C9010010C9010010C9010010CF01001061
:10013000C9010010C9010010D1010010D301001045
:10014000C1010010C1010010C1010010C101001067
:10015000C1010010C1010010C1010010C101001057
:10016000C1010010C1010010C1010010C101001047
:10017000C1010010C1010010C1010010C101001037
:10018000C1010010C1010010C1010010C101001027
:10019000C1010010C1010010C1010010C101001017
:1001A000C1010010C1010010C1010010C101001007
:1001B000C1010010C1010010C1010010C1010010F7
:1001C000EFF30580103800BE00BE00BE00BE00BECA
:1001D00000BE00BEF2EB887180720010A4720010A5
:1001E0003802001090A31AE71E481F49086006C88D
:1001F00081F3088810471D480068002801D019487D
:10020000F3E70DA40ECC002902D000F012F8F9E7B4
:100210001749184A002000E001C19142FCD116495B
:100220008847164988471649884700BEFDE701C937
:1002300001C29A42FBD37047A4720010C000002094
:10024000A80C00208C7E0010000004200000042078
:100250008C7E00100010042000100420000000001C
:10026000704700000000000008ED00E0000000D032
:10027000A80C0020E01700201D3D0010D502001042
:10028000DD3C0010F8B5C04606480749091A8B1036
:10029000C90FC91810B5491003D0044B002B00D06A
:1002A000984710BDA80C0020A80C002000000000FA
:1002B000054B10B5002B03D00449054800E000BFF2
:1002C000FFF7E2FF10BDC046000000008C150020C3
:1002D000945C0010F0B5CE46474680B585B003F07B
:1002E00025FE00F0A5F800F00DF900F04BF9002311
:1002F000994698460027002685E0029800F0F4F918
:100300006B461B78012B3ED0684600F011F9041EA5
:1003100061D06B469A78597801A800F09DF900F0F9
:10032000FBF9051EF0D16B461B78002BE8D101AB21
:100330001B78042BE4D89B003B4AD3589F4601AB63
:100340005878012100F024F9DAE701AB08229B5E1E
:10035000364A934209D0A022D200934207D0FB2B09
:1003600007D0052BCCD1A146CAE72600F3E727002A
:10037000F5E7A046F5E701AB987A00F03DF9BFE755
:1003800000F04EF9BCE701AB1B78022B09D0032B20
:100390001DD0002BB8D101AB5878002100F0F8F83F
:1003A000B2E701AB08229B5E204A934209D0A0220B
:1003B000D200934207D0FB2B07D0052BA4D1A9462E
:1003C000A2E72E00F3E72F00F5E7A846F5E70020A7
:1003D00000F012F998E7002E1FD10021002F01D064
:1003E000033149B24346002B1AD100204B46002B63
:1003F00001D0033040B203000B4301D000F0E6F817
:10040000012001F0FDF800F03FF8012000214042FA
:1004100004F0CEFC00F086F976E703214942DDE7DF
:1004200003204042E2E7C046985C001000FBFFFF5B
:1004300070B500240CE0124B1D5D280000F036FA68
:100440000123AB40D0221206536253610134E4B25F
:10045000032CF0D9002410E00A4B1D5D280000F0A9
:1004600025FA0123AB40D02212069362002201211B
:10047000280000F0FFF90134E4B2042CECD970BD7F
:10048000B45C0010AC5C001070B500251BE0164B8E
:10049000985CD0231B065968012383400B405942C6
:1004A0004B411249A000001909188B540132D2B2F5
:1004B000042AECD90E4B1A5D01239340D022120678
:1004C00053610135EDB2032D0DD82C00084B5A5D58
:1004D00001239340D022120693610520002101F0F0
:1004E0007DF80022E4E770BDAC5C001074150020BC
:1004F000B45C0010024B820012189B18585C7047C5
:100500007415002000200BE0084A810009185218D9
:100510000021D1540133DBB2042BF5D90130C0B234
:10052000032801D80023F7E77047C046B415002020
:1005300070B5060000250DE0114BAA0052199B185A
:1005400018557570B470012358403070012015E0C3
:100550000135EDB2032D10D80024042CF8D8210069
:100560002800FFF7C7FF064BAA0052199B181B5D16
:100570009842E1D10134E4B2EFE7002070BDC046FB
:10058000B415002010B50021002005F01DF910BDA4
:1005900070B505000C00002004F024FE002809D0EE
:1005A000002C0FD0084B1D70074B002201210020AA
:1005B00004F088FE70BD044A0021D1540133052B9C
:1005C000F9DDF1E70023FAE76C15002030B585B0BE
:1005D00005000C00002004F005FE002801D105B044
:1005E00030BD00230293019300942B0000220221CE
:1005F000002004F084FEF2E710B584B0040000206F
:1006000004F0F0FD002801D104B010BD00230293D6
:100610000193009322000221002004F070FEF3E712
:1006200010B584B00B4B1C7801225440E4B21C700E
:10063000002004F0D7FD002801D104B010BD002334
:1006400002930193009322000221002004F057FE40
:10065000F3E7C046DD17002030B5064B5400A21862
:1006600092000C01611A890052189B18020032CBCB
:1006700032C230BDB85C001000487047486C0010B2
:1006800000487047B46B001000487047906B001032
:1006900070B500280CD10F4B0F4A5A800130013041
:1006A00043009BB20B48C02292001343038070BDED
:1006B0000A4B8000C458200005F03AFAC0B200236B
:1006C00005E05A1CE55C034B5100CD52D3B2834286
:1006D000F7D3E4E7880E002009040000E80B0020AF
:1006E000002070477047000010B5074B1860074B9B
:1006F00000221A70064B01321A7001F059F8054BAE
:100700001860596010BDC0465C110020DF17002042
:10071000DE170020280E0020014B18787047C046D5
:10072000DE17002070B582B03F4B1B78002B75D0D0
:100730003E4B1B68002B71D001F03AF83C4B1A6815
:100740005B68121A8B41002B68DC34D0374A394B76
:100750001B789B001168C91801AE0422300002F01A
:10076000BDF93378012B2DD0022B40D0002B0FD1B7
:1007700070780121FFF70CFF01F01AF8FA225201FC
:10078000002380185941002918DB294B1860596053
:10079000284A13780133DBB21370244A9B00126895
:1007A000D118D35A002B39D14B88002B36D11E4B90
:1007B00000221A7032E0002AC8D02FE00120404207
:1007C0001D49E2E701AB58780021FFF7E1FE00F098
:1007D000EFFF1A4A002380185941002903DB144B0C
:1007E00018605960D4E7012040421349F7E700F050
:1007F000DFFF04000D0001AB5888FA2292000023AD
:10080000002102F0ABF800196941002908DB084B10
:1008100018605960074A13780133137002B070BD35
:10082000012040420449F2E7DE1700205C1100205D
:10083000280E0020DF170020FFFFFF7F983A0000FE
:1008400010B58300084A9A18146840225440803238
:100850002240064CA44663441A60C000044B9C46E8
:100860006044416010BDC04604C0014004D0014056
:100870000040014080000C4B9C46604400290ED093
:100880000823002A0DD004221343026853400C228F
:100890001340802252019446604403607047002355
:1008A000EFE70022F0E7C04604C0014010B5012385
:1008B0008340D0221206936293610521FFF7C0FFA7
:1008C00010BD000010B58023DB05186803051B0D63
:1008D0000B4A934207D10B4B034080229201934273
:1008E00007D1000F10BD084B084A0948132103F037
:1008F000F9F9084B054A0648142103F0F3F9C046FC
:100900002709000000F0FF0F1C6000105C6C001055
:1009100040600010906000100FB400B583B008482C
:1009200003F006FB049B002B07D005A901911800DA
:1009300003F00EFB034803F0FBFA012003F0CCF9AF
:10094000A4600010B4600010EFF3108072B6034B87
:100950001B68002BFBD0BFF35F8F70472C0100D0CA
:10096000BFF35F8F024B00221A6080F3108870473C
:100970002C0100D0F8B506000C001500FFF7E4FFCD
:10098000E308F718F15C07222240012393400B4251
:1009900005D1DBB20B433B70FFF7E2FFF8BD21004E
:1009A0002800FFF7B9FFF0B583B0060001911400ED
:1009B0001F00FFF7C9FF00E00134BC420CD8E30878
:1009C000F518F35C0721214001228A401A42F3D135
:1009D000D2B21A432A7001E001246442FFF7C0FF3B
:1009E000002C02DB200003B0F0BD019B002BF9D0EE
:1009F0000898FFF791FF0000054A1078431CDBB20E
:100A00001370172B02D9130010221A707047C046BA
:100A1000F80B002010B582B00100054C054B009387
:100A20001F2318222000FFF7BEFF02B010BDC046F2
:100A30002C110020B8600010002307E0054A9A1826
:100A40009200BFF35F8F0021116001331F2BF5D996
:100A50007047C04640000034074B9B681030800050
:100A60001950BFF35F8FBFF35F8F044B00211960F4
:100A700082F310887047C04600ED00E0240100D0EA
:100A80000048704700E400E010B5FFF7F9FF0023CD
:100A900002E0034A04C00133072BFAD910BDC04657
:100AA0008080808010B50388DA0A1C2A05D15B0596
:100AB0005B1502335B00C01810BD034B034A8E2147
:100AC0000348490003F00EF9D4600010986C001040
:100AD000EC60001010B5091A0B1F0A4A88180A4A60
:100AE000904208D8C90706D45B105B055B0D074828
:100AF000184380B210BD064B064A872106484900BC
:100B000003F0F0F8FC070000FE0F000000E0FFFF1C
:100B10003C6100108C6C0010EC600010002A05D0C5
:100B2000044BC0225200995019607047014A80233B
:100B3000D150FAE700E100E010B50A001F2303409E
:100B4000012199404009FFF7E9FF10BD024B9B6866
:100B500010308000C058704700ED00E070B5040010
:100B60000D00EFF3108672B60C4B1B68002BFBD008
:100B7000BFF35F8F2000FFF7E9FF094B984201D0D8
:100B8000A84205D1320029002000FFF765FF70BDA3
:100B9000044B054A0548ED2103F0A4F8240100D0D8
:100BA000C10100106C610010C06C0010EC600010FE
:100BB000F0B5DE4657464E464546E0B589B081461B
:100BC00001911500EFF3108B72B66F4B1B68002B71
:100BD000FBD0BFF35F8F6D4B00269E57002E40DB8E
:100BE0007400A419A4006A4824180622A256674B70
:100BF0001A70684B9A684B4610339B00D35898463E
:100C00001B1A2F2B3BD9644B984531D105AF634B51
:100C10003B80634973009A46981980005C4B984664
:100C200040440230FFF756FF78805E4BBB80FF23C5
:100C3000BB71FD71019B0793330053449B004344F8
:100C400007CF07C301231C43A0465A4641464846E6
:100C5000FFF702FF09B0F0BCBB46B246A946A0466A
:100C6000F0BD514B514ABE215148490003F03AF8BA
:100C7000504B4E4A84214E48FF3103F033F8012394
:100C800042469A439246101A0C2101F02BF8002993
:100C90000FD153460027DA79AA4212D906215956B4
:100CA00000290DDB4A005218920039491F008B18A9
:100CB000F1E7414B3D4ACA213D48490003F012F893
:100CC0001F00002F2ED005AB3C4A1A80813A5A8073
:100CD0000623FB560293002B17DA394805AB9A46D8
:100CE0009880029A9A71DD71019A0792381D21004D
:100CF000FFF7F0FEB880BE71254B7200921992008A
:100D00009B18524613CA13C39FE7381DFFF7CAFE4C
:100D100001007000801980001D4BC0180430FFF7DF
:100D2000D9FEDBE705AF1D4B3B801D4973000293E5
:100D30009B199B00164A90461A0042440392901C4D
:100D4000FFF7C8FE7880039A101D5146FFF7C2FED8
:100D5000B8801C4B52464146521A524153431B0D18
:100D6000BB71FD71019A0792029B9B199B00434442
:100D700007CF07C3114B52461380813B5380012399
:100D80001C43A04661E7C046240100D0DC170020C8
:100D9000FC0B002000ED00E0C101001000A1FFFFEE
:100DA0002C0C002001BDFFFFA4610010A86C0010F6
:100DB000EC600010CC610010F461001001480000EC
:100DC00001BD0000AAAA0000F8B5012202432C4B85
:100DD000D31A2F2B28D8EFF30583002B2AD0EFF35B
:100DE000108472B6274909680029FBD0BFF35F8FD2
:100DF000234D25490600761B76417143090D4DB2FE
:100E0000224989689B00C958914219D000210329C1
:100E100030D81B4B4A00521892009B189B795BB24A
:100E2000AB421DD00131F2E7194B1A4A1A481B494F
:100E300002F058FF1A4B174A17481A4902F052FF9E
:100E4000124A92681849D150184B1A7882711D7055
:100E5000BFF35F8F0B4B00221A6084F31088F8BD3C
:100E6000074B4A005618B6009E19FF27B771104A63
:100E7000B280E9E70F4B074A07480F4902F032FFFB
:100E8000FC0B0020240100D0AAAA000000ED00E025
:100E900078620010706C0010EC6000107F0200009F
:100EA000A062001082020000C1010010DC170020C7
:100EB00001BDFFFFAC62001093020000024B9C4694
:100EC00061448900016070474000003410B504009F
:100ED000FFF792FD01002000FFF7F0FFFF232371D1
:100EE000BFF35F8F10BD10B50400FFF785FD010053
:100EF0002000FFF7E3FFFF23237100236371BFF39B
:100F00005F8F10BD10B50D4C09E00D4B0D4A0E481A
:100F10001A2102F0E7FE2000FFF7D8FF08340B4B40
:100F20009C4209D22368002BF5D0012BEDD1200083
:100F3000FFF7D9FF0834F2E710BDC046A00C00202F
:100F4000B4620010006D0010D4620010A80C0020E4
:100F5000034B9C46614489000160BFF35F8F70477B
:100F60004000003410B504000120FFF753FD0100DC
:100F70002000FFF7EDFF10BD30B5846A151B0B1D77
:100F80009B001B581B1B9D4204D3046A01238B400A
:100F9000234202D1043189000A5030BD00040843C5
:100FA000704700000A4B1968EFF3108372B60A68A5
:100FB000002AFCD0BFF35F8F054A1268BFF35F8F32
:100FC0000021116083F3108840BF0020002170478A
:100FD000D4170020F0B5DE4657464E464546E0B5EC
:100FE00087B0EFF3058303221A409246AE4B92007E
:100FF000D7583B78534507D1012352469340994631
:10100000AA4B4A461A6025E1A94BAA4AAA4892214E
:1010100002F068FE7A6973009B19DB0090469844E1
:1010200043469C68DD68A54800F0ACFB001BA94165
:10103000002900DA16E1002D74DB43461B699B464C
:101040009F4B9B454FD00823F85E4346598889B291
:10105000FFF7A4FF43465969D847029003910299CC
:10106000039A0B00100013435CD013000A00002801
:1010700047DAA41A9D41009401954346009C019DC6
:101080009C60DD600021595E002900DAEAE07869A1
:101090004B005B18DB00C3189A68DB68A41A9D41FB
:1010A000002D00DADEE039813D00083584460491E8
:1010B0002A000597B346009E019F049B002B2ADB64
:1010C0000023D45E63001B19DB0063449C68DD6869
:1010D00030003900001BA94100291CDB1A00002147
:1010E000595E0491E9E743465B699B461B69584694
:1010F0009847002816D05B461A685B6802920393F3
:10110000ADE76E4800F03EFB029B039C1B184C4170
:1011100000930194B1E70499059F5E464346198008
:1011200016809FE0434600229B5E3B813A69EFF3C5
:10113000108372B611680029FCD0BFF35F8F0221C3
:101140007A5E41460A807E803A69BFF35F8F002154
:10115000116083F3108885E03969EFF3108372B66C
:101160000A68002AFCD0BFF35F8FB88800B2012262
:101170005242BA803A69BFF35F8F0021116083F356
:1011800010880500BC461CE0049300229A5E002AE9
:101190000EDB049B0021595E4B005B18DB006344AF
:1011A0009868D96834003D00241A8D41002DEBDA8F
:1011B00004995D46009B9C4644460D800023E55EF5
:1011C0002280002D12DB634658696C006419E4002C
:1011D0000419A668E7686146083108229A5EAB46A2
:1011E000049163460093A0468446D0E767463EE0FC
:1011F0000023BB71390008310823F85E0EE001249A
:101200006442E5179460D56008243B5F834204D0B4
:101210000E8008243B5F138038813000431C29D0A6
:101220007C6943001B18DB00E218E65E53881BB2A2
:10123000002BE4DB1100F0E722002B0051461F4891
:10124000FFF79AFE1D4800F09DFA241A8D41002DEB
:1012500022DC1FD0194B4A465A630823FE5E002E3B
:1012600000DBD7E6BB881BB2002B00DB74E7BB7941
:10127000002BBDD10823FA5E002A0DDB79695300EB
:101280009B18DB00CB189C68DD68631CD4D16B1CF9
:10129000D8D0D1E7002CDDD040BF07B0F0BCBB46B2
:1012A000B246A946A046F0BDA41500203C700540FA
:1012B000746300102C6D0010A06300100040054006
:1012C000D50F001070B504000D0011000126AE40CE
:1012D00006622800FFF742FC01212800FFF72CFCE2
:1012E000024B9C466444266070BDC0463820000016
:1012F000F8B5CE46474680B50600894690461F00A1
:10130000C160FFF779FB154B9C466044800030615B
:1013100043463370BBB27381D022120612787270CA
:10132000012252423281B2809B187380002406E071
:10133000621E736965002D19ED005A530134BC42D9
:10134000F6D3074B42469200D650064A41464846DD
:10135000FFF7B8FFC0BCB946B046F8BD4000003446
:10136000A4150020D50F001010B5064B1B69002BEB
:1013700001D0044810BD044B044A0548652102F021
:10138000B1FCC046440C0020E8630010146D00104E
:10139000A0630010F8B504000569EFF3108072B681
:1013A00029680029FCD0BFF35F8F0221665E656962
:1013B00071008919C9006D18002E02DB0027E95F52
:1013C00061802169BFF35F8F00270F6080F3108871
:1013D000002E2CDB0699296107996961AA60EB60F0
:1013E0006B8801335B04590C002B00D1012169800B
:1013F0003000FFF7D3FD2169EFF3108372B60A685E
:10140000002AFCD0BFF35F8FA2882A80A6802269C1
:10141000BFF35F8F0021116083F31088E3682178A8
:1014200001228A4003498C4663441A60F8BD0120BA
:101430004042FBE73C20000070B582B0060014007B
:101440001D0008AB1B78002B07D100F0B1F922007A
:101450002B00121A8B41002B0ADB079B0193069B82
:10146000009322002B003000FFF794FF02B070BD04
:101470000020FBE7F0B5C64600B584B005008846FD
:1014800016001F000AAB1C78FFF76EFF029401974D
:1014900000962A004346FFF7CFFF04B080BCB84651
:1014A000F0BD000030B504000A1443899A422EDAD8
:1014B000406953009B18DB00C3182569EFF31082C5
:1014C00072B628680028FCD0BFF35F8F588885B2B9
:1014D0000904090C884212D000202369BFF35F8FF2
:1014E0000021196082F31088002811D0E368217868
:1014F00001228A4007498C4663441A6008E0064985
:10150000294389B259800123A3710120E5E7002016
:1015100030BDC0463C2000000080FFFF10B5040035
:10152000FFF722FF2100FFF7BDFF10BDF0B583B02C
:1015300006000F00EFF30583002B1AD10624644246
:10154000E517A4197D418D4202D803D1844201D907
:101550000024002500F02CF922002B00121A8B41E8
:10156000002B0BDC08D03000390000F029F903B063
:10157000F0BD1648FFF7D0F9002AF4D0144A002332
:10158000009320002900FFF775FF002813DAEAE72F
:10159000104B1968EFF3108372B60A68002AFCD06A
:1015A000BFF35F8F0B4A1268BFF35F8F002111609A
:1015B00083F3108820BF084B5B6A9D42E8D8064938
:1015C000896AA142CFD29D42CDD1E1E70C640010DF
:1015D000A50F0010D41700200040054070B504008E
:1015E0000D0000F0E5F800196941002902DBFFF762
:1015F0009DFF70BD012040420049F8E7FFFFFF7FDB
:1016000010B5FA2292000023002101F0A7F9FFF79C
:10161000E5FF10BDF0B5CE46474680B583B0050066
:101620000C00EFF30583002B15D03F4B5B6A8B4218
:1016300009D33D4A926A82420BD28B4201D00120EB
:1016400002E0002000E0002003B0C0BCB946B04674
:10165000F0BD0120F8E7FFF787FEC36899460378DD
:1016600098462E002700484600F08CF802000B0038
:10167000B61A9F41434604339B004A469B581B1AA7
:101680000022BA420FDC0CD020BF274B5B6A9C4281
:101690002DD8254A926AAA422BD29C4225D00120FD
:1016A000D2E7B342F0D9214A002300932800210059
:1016B000FFF7E0FE00281EDD1B4B5B6A9C4205D84D
:1016C000194A926AAA4202D29C4200D120BFFFF777
:1016D00025FF154B5B6A9C4221D8134A926AAA42A5
:1016E0001FD29C4219D00120AEE70020ACE70020B9
:1016F000AAE70120A8E70C4B5B6A9C4209D80A4A7A
:10170000926AAA4207D29C4201D001209CE70020A5
:101710009AE7002098E7012096E7002094E7002050
:1017200092E7012090E7C04600400540A50F001059
:10173000004870470040054010B50B4B1B69002B5B
:1017400004D00A480A21FFF7B9FB10BDFFF7F0FFEC
:101750000400032100F00CF80348102303222100A9
:10176000FFF7C6FDEDE7C046440C0020D41700206B
:1017700010B5024A0248FFF7FDF810BD5C64001086
:10178000301100200200436A906A1900536A99429E
:10179000FAD17047416A00E0416A9942FCD300E007
:1017A000416A994202D1816A9142F9D3704700009F
:1017B00010B50248FFF7E6FF10BDC04600400540E7
:1017C00010B502000B000248FFF7E4FF10BDC04651
:1017D00000400540F8B5D646474680B506000D00E6
:1017E0001700984644002418A400294B9C466444E2
:1017F0006368089A934200D26260331FDBB29A4654
:10180000012B2ED980221201C0239B01E3181A60FC
:10181000204BB200D158002907D0586900F062FA75
:10182000013043001B18033BFDD27F0123685F405A
:10183000E0233B4080225201A21813605346012B43
:101840001AD980239B01E318802212011A60089B99
:101850006360104BB6004246F250C0BCBA46B04678
:10186000F8BD012DCED10322C0239B01E3181A60DD
:10187000A368DB07FCD5D8E72168694003230B4048
:101880001360A3680122AA401A42FAD0D9E7C046E1
:101890000080004034110020F0B583B005000E0038
:1018A00017001800089900F01DFA0300089A1402A6
:1018B00000943A0031002800FFF78CFF03B0F0BD20
:1018C00010B582B0802464000094FFF783FF02B05B
:1018D00010BD0000014B8000C0587047341100203B
:1018E000F0B5C64600B504000E0017001D003748CD
:1018F00000F0F8F98046364BFA18364B9A4239D840
:101900000100380000F0EEF90200103A98235B0065
:101910009A4235D86B1E062B38D8069B013B062B06
:1019200034D83F09474537D32D04069B1B031D437D
:101930002368002B36DB284B9C4244D00C22012329
:101940009340264A1360264A1360264A12681900FB
:1019500091430A1EF9D12660A060234BE31821327F
:101960001A602268002AFCDAE56008221A6080BC4E
:10197000B846F0BD1D4B1E4A1E48112102F0B2F9B7
:101980001D4B1B4A1B48192102F0ACF91B4B184A8E
:1019900018481C2102F0A6F9194B154A15482321B5
:1019A00002F0A0F922683F231340B342C3D1A368D9
:1019B0001B051B0D8342BED1E368EE22D202134009
:1019C000AB42B8D1D3E70D22B9E7C046001BB70040
:1019D00080E84BD380F8A93200C0024000E000400C
:1019E00000F0004008C00040043000008064001097
:1019F000446D0010D0640010206500103C6500109C
:101A00008865001080239B000B43014AD362704716
:101A10000080054010B5010018231B88142210888F
:101A2000984710BD10B5010018231B881622108896
:101A3000984710BDF0B5C64600B507000E0000255A
:101A40000123984600E00135B5420AD2AC003C19AA
:101A50002068FFF7DFFF20600028F4D100239846BC
:101A6000F1E7404680BCB846F0BD0000074BAA2213
:101A700012011A608D225200DA60054B054A1A6085
:101A8000024B5B68002BFBDA7047C0460040024007
:101A90000060024000B0FA0010B5040001E008CC7C
:101AA0009847024B9C42FAD310BDC0468C5C001094
:101AB0007047000010B50248FFF7EEFF10BDC046AA
:101AC000505C0010054B064A1A60064B064A1A6025
:101AD000064B1A68044B9343FAD1704700E000406C
:101AE000BFCDFBFE00F00040FE7F3C0008C0004080
:101AF000044BDB6C002B03D1034B8022D2021A6013
:101B00007047C046000011504C201150044B054A4C
:101B10001A60054B1B68DB43DB01FAD17047C046F6
:101B200000F00040FFFFFF0108C00040034B4022CF
:101B30009A675A671A67DA667047C04600F0014034
:101B400010B5FEF779FF10BD10B50C4A0C4BD21A38
:101B500092101400302A00D9302292000948084916
:101B600000F0BCFF04E0084A064BA100CA50013453
:101B70002F2CF8D9034B054A936010BDC00100100B
:101B80000001001000000020C101001000ED00E085
:101B900070B50420FFF79EFE064900F0A3F805008B
:101BA0000024002C00DD70BDE0B22900FFF72AFF01
:101BB0000134F6E740420F0030B583B0274B0022D6
:101BC0009A67FFF753FF264B01221A60234B5B6C89
:101BD000012BFBD1234B03221A60204B9B6B012B63
:101BE000FBD10133009304331F4A01211F48FFF743
:101BF00077FE052300931E4A01211E48FFF770FE61
:101C00001D4B002202210420FFF75AFE1B4D2B0022
:101C1000002201210520FFF753FE194C230000226A
:101C200000210720FFF74CFE23000022002108209E
:101C3000FFF746FE8023DB000093230000220021F3
:101C40000920FFF729FE2B00002200210620FFF7C4
:101C500037FEFFF79DFF03B030BDC0460080004057
:101C60003CB0004030B00040002F68590080024076
:101C7000008C864700C00240001BB7004059730724
:101C8000006CDC0201480421014B1847600C002065
:101C9000351A0010124A936F9B0815D29066D166D0
:101CA000002905D0FFE7FFE7FFE7516F106F70478E
:101CB00004B580210906C2175140002800D0C8434E
:101CC00003F08EFF002104BDF0B5146E556E576F02
:101CD000166FFFF7E3FF1466556657671667F0BD8A
:101CE000000000D0114A936F9B0813D21066516612
:101CF000002905D0FFE7FFE7FFE7516F106F70473E
:101D000004B5002801D00020C04303F069FF002182
:101D100004BDC046F0B5146E556E576F166FFFF7D1
:101D2000E5FF1466556657671667F0BD000000D0E2
:101D300094464A4A926F9208624601D228E0C04611
:101D4000F0B5464E346E756E776F366F00F020F842
:101D50009446424A14665566576716676246F0BD58
:101D600094463E4A926F9208624601D254E0C046C1
:101D7000F0B53A4E346E756E776F366F00F04CF8F2
:101D80009446364A14665566576716676246F0BD34
:101D9000002B24DB11D000293EDA00B5C9434042B4
:101DA00000D1013100F038F8C943404200D101317F
:101DB000DB43524200D1013300BD002AEBD10028A1
:101DC00001D1002905D00020C90FC90701D1C043A6
:101DD000410800B503F0F4FE0022002300BD00B569
:101DE00000290ADBDB43524200D1013300F014F832
:101DF000C943404200D1013100BDC943404200D136
:101E00000131DB43524200D1013300F005F8DB43DE
:101E1000524200D1013300BD002923D1002B18D13B
:101E2000002A0CD0BC460D4F38667A66002100238C
:101E3000FFE7FFE7FFE77A6F386F674670470028D4
:101E400001D00748010000B503F0BAFE00220023CC
:101E500000BD02000B00002000217047000000D0F0
:101E6000FFFFFFFF002B00D0BFE0130C28D1002A9A
:101E7000E7D080B4114F39667A66FFE7FFE730B4E8
:101E8000040C7B6F396F1B0423433B667A66FFE7C4
:101E9000FFE7FFE7C04684B27B6F3D6F1B0423431F
:101EA0003B667A66FFE7FFE7C04600232C042D0C53
:101EB0007A6F386F00196941B0BC7047000000D0DC
:101EC000F0B594460025140E01D112020835140F06
:101ED00001D112010435940F01D192000235D40FC3
:101EE00001D152000135D40B0134254F7C66254CBD
:101EF0003C660E0C93B2FFE7FFE7FFE73C6F6643DB
:101F0000360C7703BE467343DF0B5B04C01AB9413E
:101F1000130C7343DB18C91ACE086643360CB6445B
:101F200093B273431F0F1B01C01AB941130C7343C3
:101F30001F0B1B05C01AB941860D8F023E43664335
:101F4000360C092D24DB520A7243801A7703460AA5
:101F50006643360C16235B1BDE40DF40BF19644628
:101F60006643821B7046043506330100D940A84001
:101F7000C01900D30131A24206D20023F0BD0000F7
:101F8000000000D0FFFFFFFF121B0130F3D3F1E789
:101F900009277F1BFE406446A2B27243801A00D21A
:101FA0000139220C7243130C1204821A99410B005E
:101FB0007046043513370100F940A840801900D35A
:101FC0000131002B02D1A2420AD2F0BD013000D370
:101FD0000131121BFAD2013BF8D1A24200D2F0BD6E
:101FE000013000D30131121BF7E7F0B51C0C00D013
:101FF00080E00CB400251C0A04D11B02160E3343EA
:10200000120208351C0B04D11B01160F33431201B9
:1020100004359C0B04D19B00960F3343920002358C
:10202000DC0B02D192185B4101351C00971864410A
:102030000134464F7C66464C3C660E0CFFE7FFE7DA
:10204000FFE7C0463C6F6643360C7703BE4697B247
:102050007743C01B00D20139C01B00D201399FB2A7
:102060007743C91BC91B170C77437E04FF0B801BEA
:10207000B941CE086643360C0C2D33DBB644120B47
:102080001F053A431B0B97B27743C01B00D201399F
:102090009FB27743C91B170C77433E043F0C801B4C
:1020A000B941860D8F023E43664329277F1BFE40C0
:1020B0000C3D7746AF40BF1930BCA2B2ABB2724301
:1020C0007343801A9941220C7243130C1204801A34
:1020D000994102000B000137001BA941F9D2781E7B
:1020E0000021F0BD0C277F1BFE4077467F0BAF40E1
:1020F000FF19E0E700245D1C07D0144F7D663966A8
:10210000FFE7FFE7FFE7FFE73C6F95B29EB265434D
:102110006643401BB141150C1E0C654366433604F3
:102120002F0C3E432D04401BB141994204D20200C2
:102130000B0020000021F0BD01D19042F7D3801A9E
:10214000994101349942F2D3F6E70000000000D033
:10215000FFFFFFFF48404140484018B41B4B5B68FD
:10216000FC46019308BD04DF2F24001018B4174B60
:102170001B68FC46019308BD00DF3924001094461B
:10218000134A926F920809D2624618B40F4BDB686B
:10219000FC46019308BD0CDFF12600100C4AF0B597
:1021A000146E556E576F166F6246FFF7EEFF084AC2
:1021B0001466556657671667F0BD18B4034B9B68E5
:1021C000FC46019308BD08DF95250010D0150020BE
:1021D000000000D0FFB550404240504059404B40B5
:1021E000594000E0FFB5154F4C00640D03D0BC42D0
:1021F00004D10C0314D80020090D09055C00640DFE
:1022000003D0BC4204D11C030AD800221B0D1B05BD
:1022100001264B4009D44B4003D58B4200D182426A
:10222000FFBD9942FCD19042FFBD0B43DB18034335
:102230001343F5D0C9434918FFBD0000FF07000054
:1022400000B5FFF7CFFF804100BDC04600B5FFF7E6
:10225000C9FF01D9002000BD012000BD00B5FFF776
:10226000B9FF01D9002000BD012000BD00B5FFF776
:10227000B1FF804100BD012040054A00121804D87A
:102280005A00121801D80020704701207047000042
:102290000021002805D17047C1174840401AFAD0E4
:1022A000C90713B5064B1B6898470CBC441CA240D9
:1022B0001005120B0349091B09051943114310BDF1
:1022C000D01600201F04000010B54C00620D8023C2
:1022D000D218DB00D21A5B057E2A10DD9E3A13DA93
:1022E000CC170903490819435242D1406400013414
:1022F0001532202A05DAD0400843604310BD002083
:1023000010BD0846604310BDC80FC018013810BD8D
:1023100018B4044B5B6AFC46019308BD24DFA12876
:1023200000100000D015002070B513231C78012C7C
:1023300012D0012C12DC214B214A93642148FFF773
:1023400069FB214B186070BD1C491D4A98008150E3
:1023500001331F2BF8D9ECE70023FAE71B48FFF7FE
:1023600061FB05001A48FFF75DFB023803789B000C
:102370007F2B09DD12488022290000F0AFFB022CE0
:1023800008D0022CDADCD6E7124B134A134833216B
:1023900001F0A8FC124B1A88B5231B029A4209D1FE
:1023A000104B1A88104B9A4204D1104B1A88104BCC
:1023B0009A42E6D00020FEF7AFFAC046F52300109F
:1023C000D01500204C330000D016002053440000EC
:1023D00053460000A4650010506D0010E865001021
:1023E00054380000D8380000494600009C380000EE
:1023F0005946000007B56046002800D100BE01889C
:102400000A0A0230DF2AFAD1C9B2820804D302884C
:1024100040880004104300E00068024A50500390D6
:1024200007BD0000D01500200FB403BC0CBCF0B5F4
:102430000124E407634000E0F0B50C0DCF0F661EE9
:102440003605891B640503D3C943404200D30131DB
:10245000640D03D0661CF60A07D0E41B00207F0041
:10246000791C89078912803C24031D0DDF0F6E1E25
:1024700036059B1B6D0503D3DB43524200D301336A
:102480006D0D03D06E1CF60A07D0ED1B00227F00F5
:102490007B1C9B079B12803D2D032F1B661B58D472
:1024A000A446202E46DA20371400BC401D00BD4053
:1024B000F24033412A4380185941CB0F05D0C9431C
:1024C000C043002264425041514162464D0D28D123
:1024D0000D0D07D100281FD0241940414941013A70
:1024E0000D0DF9D0640006D3013000D30131002C6A
:1024F00001D140084000013A0BD4941CE40A04D1F5
:1025000012051144DB071944F0BDD907204B1943CC
:1025100000E0D9070020F0BD0029DDD1002CDBD17F
:10252000F0BD0132C6074008CD0728434908002EF8
:10253000E1D0D9E73C2E29DA203E40371400BC40D8
:1025400000D00124F24014431A00BB401C43D317AF
:10255000ACE7AC46202F08DA20360400B4400D006A
:10256000B540F84039412843A5E73C2F0CDA203F1D
:1025700040360400B44000D00124F8400443080071
:10258000B1400C43C117EAE710001900002494E79A
:102590000000F07FF0B50C0D661E3605891BE60ABB
:1025A0006405640D02D0651CED0A04D000200121F1
:1025B0000905803C2403A4461C0D671E3F05DB1B58
:1025C000E70A6405640D02D0651CED0A04D0002200
:1025D00001231B05803C24037740644497B484B2F4
:1025E00096B27443070C7E43150C6F4380B2684368
:1025F000361802D3012000043F183004350C0019AE
:102600007D41844688B29AB250430C0C62431F0C41
:102610007C438EB27E43921902D301263604A4195C
:102620001604170C3618674101BC81B29AB25143A7
:10263000040C62431B0C5C4380B25843121802D353
:102640000120000424181004130C401863412D18B5
:102650005E410020474106BC88B293B258430C0C3F
:102660006343120C544389B251435B1802D30121D6
:102670000904641819041A0C091862416D185641AE
:102680000020474118BCF902720D1143F0026A0D97
:102690001043ED020A0D03D16D1940414941013B40
:1026A000124E9B1B7600B3420ED26D0007D3013051
:1026B000002671416646354301D1400840001B05A4
:1026C000C918E4072144F0BD0BDA013306D101300B
:1026D00004D101314F0D01D04908F2E7E107002094
:1026E000F0BD013631050020EBE70000FF030000DC
:1026F000F0B51C0D671E3F05DB1BE70A6405640D82
:1027000002D0661CF60A04D0002201231B05803C7F
:102710002403D0252D060026F6432E661E096E667C
:10272000CE0FF619B44649004F0D02D07E1CF60AB2
:1027300003D000200021403F3F033E1BB600B444BD
:10274000013F7F05C91B49082E6F013676089C02A0
:10275000950D25437543ED137543AD1301356D108C
:10276000F603761B0CB4CC02450D2C43A2B2B3B2D7
:102770005A43270C7B43350C6F43A4B26C431B199F
:1027800002D3012424043F191C041D0CA4187D410C
:1027900024196D41009A91B2ACB26143170C7C438D
:1027A0002B0C5F4392B25A43A41802D301221204A5
:1027B000BF182204230C52187B41019C6C431B1947
:1027C000520ED9010A434401A01A81B2B2B2514358
:1027D00003145A43360C734387B27743D617D21982
:1027E00000277E4136049B191704160C7F185E41A2
:1027F0007316ED18F301002680337541A90F06D139
:102800006400690AE8055B0A184309D22FE0042234
:10281000944480337541A90AA8059B0A184326D31E
:10282000404149412404009A019B0D005543641B1B
:102830004343E41A95B286B27543170C7E43030CEA
:102840005F4392B25A43B61802D301221204BF1852
:102850003204330C52197B4152429C41002C02D469
:102860000022013051414008CA071043490802B014
:102870006246D7079210084BD218084B9A4203D2EF
:1028800012058918C919F0BD0020002A01DC3900A1
:10289000F0BD01331905F5E7FD030000FE07000058
:1028A000002200B5203200F004F8080000BD00004E
:1028B00000220B150AD410B5944600F031F8141418
:1028C000013400DA0021CB17144C204700200021EE
:1028D00070476244343A0CD40C2A07DA0400914061
:1028E000904052422032D440214310BDD843D943B6
:1028F00010BD203207D40C46944052422032114180
:10290000D040204310BD0800C917203203D45242E2
:102910002032104110BD1800190010BDD32800103E
:102920000A0DCC0F531E1B05C91A520503D3C94308
:10293000404200D30131520D03D0531CDB0A07D0B3
:10294000121B00206400611C89078912803A12035F
:10295000014BD21A70470000FF030000514343436C
:10296000C9188C46110C83B24B4310B4040C61435C
:1029700092B280B2504362431C041B0C001910BC7D
:1029800059411304120CC0185141614470470000B2
:1029900070B513231E782A48FFF744F80500012E6E
:1029A00011D0012E09DDAB1E1B789B007F2B40DD73
:1029B00024488022290000F091F82348FFF72AF8E4
:1029C000224B186070BD1F485422290000F086F881
:1029D0001F4B1A881F4B9A421CD1A7239B011A88B0
:1029E0001D4B9A4216D11D4B1A881D4B9A4211D18C
:1029F0001C4B1A8894239B019A420BD11A4B1A88BC
:102A00001A4B9A4206D11A4B1A681A4B9A4201D1B4
:102A1000152307E01848FDF77FFF184C094A990075
:102A20008C5001331F2BF8D9144B064A1362D36123
:102A3000B7E7134B134A1448422101F053F9C0463B
:102A400053460000D41600204C330000D01600205E
:102A5000EE290000C40F0000C20D0000962B0000FC
:102A6000C0B50000182B0000CC2A000010B50000F3
:102A7000FC2C000051ED8764386700108D2A00108F
:102A800048660010646D00107C66001007B5604653
:102A9000002800D100BE01880A0A0230DF2AFAD1DC
:102AA000C9B2820804D3028840880004104300E0C1
:102AB0000068024A5050039007BD0000D416002061
:102AC00001480421014B1847700C0020351A0010F2
:102AD000014B1B6818470000700C0020014B5B681D
:102AE00018470000700C0020704710B5002802D075
:102AF0000B684968984710BD0100002007E083007B
:102B00001B185B00501C08601078C01830380A6829
:102B10001378303BDBB2092BF1D97047F0B5DE46B4
:102B200057464E464546E0B583B093461F000C9B82
:102B30009A460D9C0E9B99460F9B9B0717D0B84653
:102B40000F00060022E0551C4B4641462020B847A6
:102B500001342A00B442F6D33D004F465C46019B47
:102B60009B46B1464646B84637002E000EE001921D
:102B7000A34688464E46B9460700EBE7013C551C84
:102B80005346185D43463900B0472A00002CF5D162
:102B900035003E0047460F9B9B0711D4100003B041
:102BA000F0BCBB46B246A946A046F0BD541C4B46FD
:102BB00041462020B8472200531BB342F6D3EDE72D
:102BC000B0464E46B9462F005D46F5E7F0B5CE4615
:102BD000474680B585B0944698460C9D0D9C0EAB3B
:102BE0001B789946109A119B129EB7071CD4002B94
:102BF0000CD0F7070AD54F46002F02D10C373742C9
:102C000004D0013B02E030272F550134944201D219
:102C10001F2CF8D9F70707D59C4205D21F2C03D8E3
:102C200030272F550134F5E7F70612D5770505D47F
:102C3000002C03D0944221D09C421FD00F9A102A1E
:102C40002FD00F9A022A36D01F2C0AD830222A55AC
:102C500001341F2C05D84A46002A32D02D222A558D
:102C60000134039602930194009543466246FFF7B0
:102C700055FF05B0C0BCB946B046F0BD621E012C80
:102C800017D00F9F102F0BD014000F9A102AD8D1F5
:102C9000B206D6D51F2CD4D858222A550134D3E7F2
:102CA000023CB206F1D41F2CEFD878222A55013409
:102CB000CAE71400C2E71F2CD3D860322A5501346A
:102CC000C2E7720703D52B222A550134C9E7320720
:102CD000C7D520222A550134C3E7F0B5DE46574652
:102CE0004E464546E0B593B081468A460892099320
:102CF0001CAB10CB1B789B461E9D219B9846002C3D
:102D000003D1102342469A4390468023DB00464677
:102D10001E4042461A4218D0002C22D0002614E051
:102D2000424692061BD54121C918C9B20A39C9B217
:102D3000771C0AAB995529002000FEF7D3FFAC425F
:102D400010D31F2F0ED83E00040029002000FEF7EC
:102D5000C9FFCBB2092BE3D83033D9B2E8E7612100
:102D6000E2E7270043460693209B05931F9B0493AD
:102D700003955B46029301970AAB0093099B089A5F
:102D800051464846FFF722FF13B0F0BCBB46B2469F
:102D9000A946A046F0BDF0B5DE4657464E4645462C
:102DA000E0B597B00A900B910C929A46209B9946F9
:102DB000219F22AA13789B46249B0993259C289B3C
:102DC00098464A463A4302D11032934398468022AD
:102DD000D20045461540434613420AD04A463A437C
:102DE00041D000252E0053460D934D46099B9A462F
:102DF00021E02E0053460D934D46099B9A461AE05A
:102E00004246920623D54122D218D2B20A3AD2B211
:102E1000731C99460EAB9A55524623002800390080
:102E2000FEF79EFFBC4220D813D04B461F2B16D86E
:102E30004E4605000F005246230028003900FEF7D9
:102E40008FFFD3B2092BDBD83033DAB2E0E761224F
:102E5000DAE7AA45E9D94E460D9B9A4608E04E4668
:102E60000D9B9A4604E0002602E04E460D9B9A46D2
:102E700043460693279B0593269B0493099B039344
:102E80005B46029301960EAB009353460C9A0B9946
:102E90000A98FFF79BFE17B0F0BCBB46B246A946A6
:102EA000A046F0BDF0B5DE4657464E464546E0B575
:102EB00091B0804689460C929A461A9C1B9D22002E
:102EC0002B0020002900FFF7D6F9002800D0F2E0FF
:102ED00001225242D54B20002900FFF7C7F90028F4
:102EE00000D0E8E001225242D14B20002900FFF738
:102EF000A7F9002800D0DEE00022002320002900EE
:102F0000FFF79EF9002800D0EAE006940795802399
:102F1000DB001E9A1A400D921E9A1A4201D1062316
:102F20001C930698079902000B000892099303006E
:102F30000A00024300D1DFE0080D4005400DBD4E00
:102F4000B4466044079E3203120B1E00BA4B134373
:102F50001F00FFF7A1F9B94AB94BFFF72EF9B94A9B
:102F6000B94BFFF703F9089009910022B74B3000E5
:102F70003900FFF7F2F8B64AB64BFFF71EF9020028
:102F80000B0008980999FFF7F1F8FFF79DF98346C0
:102F9000FFF782F906000F00AF4AB04BFFF70DF9BB
:102FA0000022AF4BFFF7E2F8FFF78EF90890AD4A29
:102FB000AD4B30003900FFF700F906000F0008980C
:102FC000FFF76AF9A94AAA4BFFF7F7F802000B00CE
:102FD00030003900FFF7C1F806000F0002000B00B7
:102FE000FFF7EBF80A900B91089BA24A94466344C2
:102FF00000210022089109921B05099300230893E0
:1030000032003B0030003900FFF7B0F80E900F910E
:1030100032003B0000208021C905FFF79EF8060022
:103020000F000022944B0A980B99FFF7A8F8002292
:10303000924BFFF79BF802000B000A980B99FFF7E1
:103040009EF800228E4BFFF791F802000B000A98C1
:103050000B99FFF794F802000B0030003900FFF7DE
:1030600085F802000B000E980F99FFF788F80022F0
:10307000714BFFF77BF8089A099BFFF79EF8060053
:103080000F0008960997069A079BFFF7EFF80028AC
:103090000BD001235B429C46E3440022774B300077
:1030A0003900FFF76CF8089009915B466333C62B33
:1030B00045D8042623E01E9B04931D9B03931C9B71
:1030C00002930094019553460C9A4946404600F0FD
:1030D000FBF811B0F0BCBB46B246A946A046F0BD15
:1030E0000021002206910792069480231B069C462D
:1030F000AC44634607930AE700239B4604261E9BC5
:103100001B0528D5089A099B190011430FD05D4A69
:103110005D4B06980799FFF7A1F800287AD00022A6
:103120005A4B06980799FFF78BF8002872D01C9B22
:103130005B4506DD5A469B1A013B1C9303E00526BE
:10314000DDE700231C938023DB001E9A1A431E92A6
:10315000002600239B461D9B9E4265D29F1B022397
:103160001E9A1A400A921E9A134202D0002E00D0D4
:1031700000275B46002B07D0089A099B0698079901
:10318000FEF7FDFF06900791002200232000290092
:10319000FFF756F8002800D07CE03D4B1E9A134004
:1031A000049303971C9B0293069B079C0093019436
:1031B00053460C9A4946404600F086F8002E00D14E
:1031C00087E71E9B9B0671D54525441C534602008C
:1031D00049462800C0475A46D317D2185A400523FB
:1031E0000593013E0496002303930A3302935B4642
:1031F000DB0F019300925346220049464046FFF7F9
:103200006CFD0A9B002B00D163E7020047460C9E31
:103210001D9D53E01C9B002B9DD00D9B002B9AD035
:103220001C9B013B1C9396E7002798E7FFFFEF7F6D
:10323000FFFFEFFF01FCFFFF0000F03FFB799F5015
:103240001344D33FB3C8608B288AC63F0000F83FC1
:1032500061436F63A787D23F71A379094F930A40F7
:103260000000E03F1655B5BBB16B0240EF39FAFEE6
:10327000422EE63FFF03000000002C4000002440E7
:10328000000018402D431CEBE2361A3F80842E418B
:10329000FFF7FFFF069C079D220029008020000603
:1032A000844661440B000692079376E765258CE718
:1032B000541C534649462020B8472200931BAB427A
:1032C000F6D3100005E7C046F0B5DE4657464E4639
:1032D0004546E0B595B00690079193469946209FE4
:1032E0001E9A1F9B10001900FEF7C5FF002831D160
:1032F00001225242BC4B1E981F99FEF7A1FF0028E5
:1033000037D101225242B94B1E981F99FEF7AEFFEA
:1033100000283DD10022B64B1E981F99FEF7A6FF4C
:1033200000284AD10022B34B1E981F99FEF788FF50
:10333000002842D1002200231E981F99FEF780FF2B
:1033400000284AD100239846229B5B0500D4B0E0B8
:10335000002452E0229B0393219B029303230193B9
:10336000A54B00934B465A4607990698FFF7D6FBA4
:1033700008E1229B0393219B0293042301939F4B1B
:1033800000934B465A4607990698FFF7C7FBF9E0AA
:10339000229B5B070ED59A4B042222990391219917
:1033A0000291019200934B465A4607990698FFF7FF
:1033B000B5FBE7E0934B0322EFE7229B0493219BAD
:1033C000039302971E9B1F9C009301944B465A4601
:1033D00007990698FFF766FDD4E01E9A1F9B002010
:1033E0000021FEF7BAFE1E901F9101239846ABE71D
:1033F0000CAB30221A55013F01341F2C01D8092F84
:10340000F6D81E981F99FEF75FFF0500FEF744FFF0
:1034100002000B001E981F99FEF79FFE7A4BFA00E0
:103420009B181A685B680A920B93FEF7C6FE089019
:103430000991FEF76DFF0600FEF72AFF02000B0060
:1034400008980999FEF789FE0890099100226F4BB0
:10345000FEF70CFF00282ED001363000FEF718FFD3
:1034600002000B000A980B99FEF7F0FE002801D02D
:1034700001350026002F2CD12800FEF70DFF020099
:103480000B001E981F99FEF768FE06000F00002231
:103490005E4BFEF7D5FE002846D100225B4B300084
:1034A0003900FEF7E3FE00283ED1EB073CD501359D
:1034B0003AE006274CE70022544B08980999FEF79A
:1034C000BFFE0028D6D1002E01D0F307D2D5013699
:1034D000D0E7AA461F2C11D8013F0A213000FEF781
:1034E00001FC651C30310CAB19550A213000FEF788
:1034F000F9FB092E0ED906002C00EBE755461F2CD0
:103500000CD87B1E002F09D00CAA302111551F00AA
:103510000134F4E72B0055461C00F0E71F2C03D8BC
:103520000CAB2E221A5501341F2C10D80A2128006A
:10353000FEF7B0FB661C30310CAB19550A21280090
:10354000FEF7A8FB051E01D03400EDE7340003238D
:10355000229A1340012B1CD01F2C06D84346002B67
:1035600032D00CAB2D221A550134229B0393219BA0
:10357000029301940CAB00934B465A460799069868
:10358000FFF7CCFA15B0F0BCBB46B246A946A04640
:10359000F0BD219B002B13D04346002B02D10C33EE
:1035A00013420FD0219B013B2193190003E00CAB88
:1035B00030221A5501348C42CED21F2CF7D9CBE7DA
:1035C0002199F8E72199F6E7229B5B0704D50CAB1C
:1035D0002B221A550134C8E7229B1B07C5D50CAB1B
:1035E00020221A550134C0E7FFFFEFFFFFFFEF7FF6
:1035F00065CDCD4165CDCDC1206700102467001099
:10360000146700101C670010786F00100000E03F86
:10361000F0B5DE4657464E464546E0B593B0070046
:103620008A4693461193002900D12CE3002508E037
:103630006C1C5B462A005146B847119B013311931D
:103640002500119B1878002800D11EE32528EFD112
:10365000013311930023180020E0012318430132A5
:103660001192012418E0022318430132119201241F
:1036700012E0042318430132119201240CE00823C4
:10368000184301321192012406E01023184301323D
:103690001192012400E00024002C09D0119A137823
:1036A000203BD9B21029F6D88B00C449CB589F468D
:1036B0008146119B1A781300303BDBB2092B10D9DD
:1036C0002A2A13D00B94119B1A782E2A20D0119AF3
:1036D0001378683BD9B2122965D88B00B849CB580A
:1036E0009F4611A8FFF708FA0B90ECE71C9B1A1DE8
:1036F0001C921B68002B04DB0B93119B013311936D
:10370000E1E702220100114389465B420B93F4E793
:103710008022D2004946114389465A1C11925A7898
:103720001300303BDBB2092B0BD92A2ACFD11C9BCB
:103730001A1D1C921C68002C08DB119B013311938D
:10374000C5E711A8FFF7D8F90400C0E70024F4E7A3
:1037500080235B0049460B43511C119151786C2921
:1037600001D099461FE0C0239B0049461943894672
:103770000232119217E0802349460B43511C1191EC
:103780005178682901D099460DE0C0234946194374
:1037900089460232119206E080235B0049461943B4
:1037A000894601321192119B187867281CD8252868
:1037B00000D25EE20300253BDAB2422A00D958E289
:1037C0009300804AD3589F4680239B004946194363
:1037D000894601321192E6E780235B00494619438E
:1037E000894601321192DEE7782800D941E2692842
:1037F00000D23EE20200693AD2B201239340724AFB
:10380000134210D11A0600D50CE25B0500D430E259
:103810001C9B1A1D1C921E68002C00D0BAE10122CC
:103820005242330096E16F2842D005D8582841D043
:10383000622803D1022606E078283DD010234A46AC
:103840009A4391460A26582838D0692805D064281A
:1038500003D00C224B46934399464B465A0502D55A
:1038600001229343994669282DD064282BD04B46DA
:103870009A0500D5AAE0DA0500D5C2E05A0600D4C0
:10388000D3E01C9A111D1C911168FF220A404B467F
:1038900005930B9B049303940296002301930092DB
:1038A0005B462A0051463800FFF717FA05002AE068
:1038B0000826C8E71026C6E71026C4E720224B4694
:1038C00013439946C1E74B469A0520D4DA0551D4F3
:1038D0005A0666D51C9A111D1C911168FF220A40D8
:1038E000D017111841404B4605930B9B049303944A
:1038F0000296D20F019200915B462A005146380091
:10390000FFF7EBF90500119B0133119399E61C9A1F
:10391000073207218A43110008311C91116853684E
:103920009C46DB170C930D930C9A0D9B100048409E
:103930000E900D9B61464B400F930E980F990C9A79
:103940000D9B801A99410E900F914B4608930B9B4B
:10395000079306940496002305936346DA0F0292B8
:10396000009001915B462A0051463800FFF713FA98
:103970000500C8E71C9A111D1C911268D017111878
:10398000414005930B9B049303940296D20F01923E
:1039900000915B462A0051463800FFF79EF905006A
:1039A000B1E71A0605D51C9A111D1C910023D25EA1
:1039B00096E71C9A111D1C91126891E7D86D0010B2
:1039C0001C6E0010686E0010419000001C9A0732B7
:1039D00007218A43110008311C9108930B9B079320
:1039E000069404960023059302935368126800928C
:1039F00001935B462A0051463800FFF7CCF90500D9
:103A000081E71C9A111D1C9105930B9B0493039451
:103A1000029600230193136800935B462A005146E7
:103A20003800FFF75AF905006DE71A0606D51C9A0B
:103A3000111D1C9112681204120C28E71C9A111D0A
:103A40001C91126823E746281AD01C9B07330722D3
:103A500093431A0008321C924A4604920B9A03922E
:103A600002941A685B68009201935B462A005146F3
:103A70003800FFF729FC0500119B01331193E0E5A5
:103A800020234A461A439146DFE7672801D047289A
:103A900004D180231B014A461A439146452801D090
:103AA000472803D120234A461A4391461C9B0733DB
:103AB000072293431A0008321C924A4604920B9A3A
:103AC000039202941A685B68009201935B462A0095
:103AD00051463800FFF7E6F90500119B01331193B9
:103AE000AFE502234E461E404A4613421ED0012433
:103AF0001C9B1A1D1C926A1C904618785B462A0073
:103B00005146B847002E14D1119B013311934546FD
:103B100097E5551C5B4651462020B84723002A00F4
:103B20005C1C0B999942F4D81500E1E701232A00A7
:103B3000F6E7424606E0561C5B4651462020B84751
:103B40002C003200651C0B9BA342F4D89046DBE7A7
:103B500001330A001978002902D0511E002AF7D13A
:103B60009B1B8022D200494611408846494611429B
:103B700002D0A34200D923000222494611401091ED
:103B800049460A4208D02A00250099463B0047468C
:103B9000984626E0220044E6A1462A005146B24655
:103BA0000E0006E0551C5B4631002020B84723007C
:103BB0002A005C1C0B999942F4D8150022004C464F
:103BC000330056469A4691462A0025003B00474658
:103BD000984606E01D000136541C5B465146C0471E
:103BE00022003078002804D0002FF4D06B1E002D66
:103BF000F0D115004B464746109A002A03D1119B7D
:103C0000013311931DE50B9E2A0006E0551C5B460F
:103C100051462020B84723002A005C1C9E42F5D85C
:103C20001500ECE721234A461A4313001C9A111D84
:103C30001C9112680593082304930394083302939C
:103C40000023019300925B462A0051463800FFF79B
:103C500044F80500119B01331193F2E46C1C5B46A0
:103C60002A0051462520B847119B013311932500A6
:103C7000E7E46C1C5B462A005146B847119B0133B0
:103C800011932500DDE40A4FD0E45D450DD35B467A
:103C90005A1E5B4651460020B847280013B0F0BCBE
:103CA000BB46B246A946A046F0BD2A00F1E7C04691
:103CB000E92A001010B584B00C0002A902904C60F3
:103CC00001240448009313006242FFF7A1FC04B0F2
:103CD00010BDC046EB2A001000BEFDE710B5FFF78F
:103CE000FBFF000030B583B00D001900002A0BD097
:103CF000074B084C019200932B000200200000F0BB
:103D000047F90120FFF7E8FF034B1A00F1E7C0462F
:103D10002C6700103C6700103867001010B5EFF3F7
:103D20000583002B00D000BEFDF7C4FE034C01E06C
:103D300008CC9847024B9C42FAD310BD8C5C001013
:103D4000945C001010B50300080011001B68984730
:103D500010BD0000F8B507000D001600437D002BD4
:103D600002D0002400200CE00368110028009847CE
:103D70002DE03B7D10E03B68154802219847601C10
:103D80000134B44214DA002CF3DD2B19013B1B780B
:103D90000D3B5A425341DBB22A5D0A2AF0D1002B77
:103DA000EED1A042E7DA3B68211A28189847E2E7EB
:103DB000B04203DA3B68311A28189847002E06DD16
:103DC000AD19013D2B780D3B5A4253413B75F8BD6F
:103DD000C86F001070B505000368002B16D00C4B9F
:103DE0001C6805E0290004C92000FFF7B3FF24691F
:103DF000002C09D02368002BF9D0064B1B68002B40
:103E0000F0D0A342F3D1EDE700232B6070BDC04694
:103E1000601100206811002070B505000C000B68CF
:103E2000802B05D023685A1C2260E418257170BDD0
:103E30000800FFF7CFFFF5E710B5FDF7B9FC074A1B
:103E4000002312184B41002B03DB054801F0D8FE7C
:103E500010BD01225242034BF7E7C04640420F001B
:103E6000A00C0020FFFFFF7F10B5024801F098FE74
:103E700010BDC046A00C0020F0B5CE46474680B528
:103E800083B006000D0090461C00FFF7D5FF814669
:103E90006B1C05D0002C08D0184F194B1C6807E08C
:103EA000300001F045FE0500F4E7164FF5E7246900
:103EB000002C17D02368002BF9D0134B1B68002B64
:103EC00001D0A342F3D12A0031002000B847434675
:103ED000002BECD06B46D91D0A230B700122200069
:103EE000B847E4E74B46002B05D1280003B0C0BC1F
:103EF000B946B046F0BDFFF7B7FFF6E7553D0010F5
:103F000060110020453D00106811002010B5064BDF
:103F10001C6800E02469002C04D06368002BF9D0F1
:103F20009847F7E710BDC046601100200020704799
:103F300070B5050001F0FCFD040001230122010021
:103F40002800FFF799FFFFF7E1FF200070BD000098
:103F5000F0B5A3B004000E00FFF76EFF050001AF3F
:103F6000002301930948330022003900FFF7A2FE25
:103F700004003800FFF72EFFFFF7C8FF002D02D125
:103F8000200023B0F0BDFFF76FFFF9E7193E0010E6
:103F90000FB400B583B004A901C90191FFF7D8FFA0
:103FA00003B008BC04B0184770B582B07F2303404B
:103FB000C509274C5E0076197601A419A0706842E5
:103FC000684160700020E0702183E276012D1ED0F0
:103FD000D800204A944660441D4A590049194901B5
:103FE000521890601A4A59004919490152189268AA
:103FF00000211160002B10D1154A5B005B195B0199
:10400000D31800225A60144ADA6002B070BDD8009A
:10401000124A94466044A060E4E7012D0BD0591E7B
:10402000C9000F4A94466144094A5B005B195B0171
:10403000D2185160E9E7591EC9000A4A9446614402
:10404000034A5B005B195B01D2185160DDE7C04693
:104050006C1100208400105000011050800010509E
:104060000C0010500800105010B5038B3F333F2256
:104070009343C27E022A08D008490A68C260D31856
:104080000B60074A934202D810BD5B00F4E7054B72
:10409000054A06485221FFF725FEC0468815002034
:1040A000FF0F10506C670010FC6F0010B06700101D
:1040B000F8B57F250540C6096B009B195B010E4CC6
:1040C0001C19FFF771FF002D00D1F8BD0A4B6D00E0
:1040D000AD196D015D19298B2000FFF7C5FFEB7E3F
:1040E0009B06E968054A4A4013438022120613439F
:1040F0006A681360E9E7C0466C11002000001050A8
:1041000010B504007F202040E40940000019400160
:10411000024BC01800F026F910BDC0466C110020FB
:1041200010B5002804D101210520FCF705FD10BDC4
:10413000034B044A98210448FF31FFF7D3FDC046E2
:104140002C680010EC6F0010B067001010B500284C
:1041500005D1002200218020FFF7D2FF10BD034BC4
:10416000034AA2210348FF31FFF7BCFD2C68001071
:10417000DC6F0010B0670010024B80225202DA643C
:104180007047C0460020115070B5041E27D100F0C2
:10419000C7F8164D0C23AB671549FF220520FCF725
:1041A00007FD144840220021FEF792FC0022402126
:1041B0000020FFF77DFF002240218020FFF778FFDD
:1041C00001F0F6FC01232B6480239B05EB64902314
:1041D000094AEA502000FFF7CFFF012070BD074BCE
:1041E000074A64210748FF31FFF77CFD00001150AA
:1041F000310300206C11002010D001002C68001049
:1042000010700010B0670010044B1970002904D022
:10421000034A902380218902D1507047D91700208A
:10422000002011500B785B0602D14B78052B00D093
:1042300070478A78014B1A60FAE7C04600001150B7
:1042400010B5CA789207920F012A0AD088780B79A4
:104250004979090219434905490DFFF729FF012052
:1042600010BD0020FCE710B501F0A2FC10BD00005D
:1042700010B50400080011001A00002C03D1FFF74C
:104280003FFF012010BD034B034A812103488900F1
:10429000FFF728FD2C680010CC6F0010B0670010ED
:1042A00010B57F23180008400B4205D1CB09012B24
:1042B0000ED00222074B9A66C909400040184001FF
:1042C000054BC01880221201002101F0B1FC10BD85
:1042D0000122EFE7002011506C11002010B57F2261
:1042E000100008400A4200D110BDC9094000401822
:1042F0004001044BC0180023C3700022024901F0A2
:1043000097FCF1E76C110020FFF7FFFF04E00A784B
:104310000270013101301A00531E002AF7D1704794
:1043200010B580235B040A4A13600A4A13600A4BE3
:104330001A6880235B049343F9D180225201002143
:104340000648FEF7C5FB064B09225A6710BDC0465A
:1043500000E0004000F0004008C0004000001050A5
:104360000000115070B504000D001600837E002B74
:1043700017D1A6820023E3820133A37625612000B2
:1043800001F026FC002804D00C4A902380218902E9
:10439000D150200001F054FC00280AD001232377DB
:1043A00070BD81780648FFF7F3FD200001F038FC6E
:1043B000DFE7200001F02CFCF2E7C046002011509E
:1043C000286900100020704770B50500002408E03F
:1043D000E31A5B01144A9B18DB68280098470134F4
:1043E000E4B2124B1B78A3420CD3F1D9104B1B68DB
:1043F00062019B18002BEFD10E490F480F4AFFF7BF
:10440000C7FD10E00E4C542200212000FEF760FB97
:10441000201D1022FF21FEF75BFB2000143020221C
:10442000FF21FEF755FB70BD8C710010D8170020DE
:10443000300E002058710010606900102502000045
:10444000100F002010B5FFF7BFFF00F037FE10BDC2
:1044500070B505000C001600486900F039FE63696C
:10446000320001212800984770BD0000F0B5D64603
:104470004F464646C0B580460139C8B2FCF704F93C
:10448000002802D04378022B0AD048494848494ABC
:10449000FFF77EFD0020E0BCBA46B146A846F0BD5D
:1044A000C5796C110122444B14402401197810265F
:1044B000B14321431970AD112A405201C9B22024E1
:1044C000A1430A431A70070009378278C3781B0298
:1044D00013438146994450E0FB789A463B78FF1895
:1044E00052E032493248354AFFF752FD0020D2E708
:1044F000E31A5B01324A9B181B69320039004046BF
:1045000098470500082801D986421AD20134E4B23E
:104510002C4B1B78A3422CD3EAD92B4B1B6862018E
:104520009B18002BE8D121492148284AFFF730FD8C
:104530000020B0E71D491E48254AFFF729FD00204D
:10454000A9E7002292450DD9BB789B18DBB21A4926
:10455000C9180979FF29EDD11749CB181C7101320F
:10456000D2B2EFE71B4823002A00390001F0E6F938
:104570007F19144B1B78A3420ED34F4514D27B787E
:104580000B2BA9D001239A467B78042BA9D14B464B
:10459000DE1BB6B20024BBE7852204490448D200E2
:1045A000FFF7F6FC002076E7012074E72C7100107D
:1045B00060690010D6030000100F0020F103000016
:1045C0008C710010D8170020300E0020FA03000074
:1045D00019040000240F0020704770470020704726
:1045E000002070470020704770B505000C00CB78A4
:1045F00088780F2B53D89A002E498A589746FCF793
:104600003BF8021E05D012232100280000F00AFD0D
:1046100046E0294929482A4AFFF7BAFC00203FE032
:10462000FFF7DCFF021E3CD08178C3781B020B43EE
:104630002100280000F0F6FC32E0022B0CD0FFF73E
:10464000D1FF021E2FD09178D3781B020B4321009B
:10465000280000F0E7FC23E0FCF716F8021EF2D178
:1046600015491648174AFFF793FC002018E02379F4
:10467000617909021943FCF70BF8021E15D0037883
:104680002100280000F0CEFC0AE0FFF7A9FF021E7F
:104690000DD003782100280000F0C4FC00E00020C9
:1046A00070BD0020FCE70020FAE70020F8E70020BA
:1046B000F6E7C0462C7000101471001060690010FD
:1046C0003A0400006104000070477047704770476B
:1046D000024B5878431E9841C0B27047100F00201B
:1046E000024B18784007C00F7047C046100F0020DB
:1046F000034B1878FF38431E9841C0B27047C0463C
:104700009C0C0020F8B504000F00FFF7F1FF061E17
:1047100045D1002F21D02C4854220021FEF7D8F992
:104720002A4B00221A702A4D2800FCF7CFFB294B98
:104730001D60294D2800FCF715FC143D280001F0F0
:10474000B0F9264B1D60264B002B04D0254800E015
:1047500000BF254B1860002510E0E92223492448BA
:104760005200FFF715FC1AE0EB1A5B01214A9B1877
:104770005B68002B0DD098470135EDB2194B1B78C3
:10478000AB420ED3F0D9184B1B686A019B18002B63
:10479000EED1F822154916485200FFF7F9FB300018
:1047A000F8BD154B1C7039002000FFF7EDFC061E0C
:1047B00003D02000FFF7B4FCF1E7FC220B490C48C2
:1047C0005200FFF7E5FBEAE7100F0020DA170020A0
:1047D000080F0020640F0020940C0020680F0020B8
:1047E00000000000D8170020300E00207C7100105F
:1047F000606900108C7100109C0C002070B50D00D9
:10480000104B1E788B7870221A420DD10E4B99787E
:10481000280001F03DF8041E0DD029003000FFF7FC
:104820000FFD0400200070BD08490948094AFFF740
:10483000AFFB0024F6E705490548074AFFF7A8FB48
:10484000F0E7C0469C0C0020100F0020E470001020
:10485000606900100B0500000C050000F0B5D6469D
:104860004F464646C0B581460C0017009846089B47
:104870009A46002517E018491848194AFFF788FB9F
:1048800000263000E0BCBA46B146A846F0BD9D22E5
:1048900011491248D200FFF77BFBF2E7099A137027
:1048A0002378E4180135AF4214DD6378052BE2D19B
:1048B000E1788907890F4145DDD121004846FFF79E
:1048C0009DFF061EE3D0A378DA09012AE6D05246FE
:1048D0001370E5E70126D4E7F4700010606900105A
:1048E000E704000010B57F200840C90940004018C7
:1048F0003030044BC0180430034B196800F0A0FF9F
:1049000010BDC046100F0020640F0020F0B5C64651
:1049100000B582B001931A4800787F250D40CE097A
:10492000184C6F00E419A41930342479E4071DD41D
:10493000144C6F00E419A419303423790127BC46C4
:1049400067463B432371019BFFF792FC002813D17C
:104950000C4B6D005B199B1930331A7901218A4386
:104960001A711A7903318A431A7105E0064907481A
:10497000074AFFF70DFB002002B080BCB846F0BD2F
:104980009C0C0020100F0020D470001060690010F3
:10499000390500007F220A40C909044B52009B18C8
:1049A0005B1830331879C007C00F7047100F002014
:1049B00070B50A4B18787F240C40CD09FFF770FCC6
:1049C000074A640013195B1930331A7902210A432C
:1049D0001A711A7901210A431A7170BD9C0C0020CA
:1049E000100F002070B50A4B18787F240C40CD09B9
:1049F000FFF774FC074A640013195B1930331A7906
:104A000002218A431A711A7901398A431A7170BDD9
:104A10009C0C0020100F00207F220A40C909044B83
:104A200052009B185B18303318798007C00F70470D
:104A3000100F0020F0B585B005000C00002000F03C
:104A400047FB237860221A40602A1AD0402A20D0DF
:104A50002378DB06DB0E012B00D1D5E0022B00D141
:104A600014E1002B00D079E1202A1CD0002A00D0CC
:104A70007CE16378092B00D97AE19B00C34AD358C3
:104A80009F465532C249C3489200FFF781FA00267B
:104A900065E1C14800F01CFB220001212800FFF75E
:104AA00091FC06005BE123790F2B00D95AE1BB4A48
:104AB000D3181B79BA4A1278934207D2B94A1168BF
:104AC0005B01C918002908D1002648E1934200D9AA
:104AD0004AE19B1A5B01B449591822002800FFF7EC
:104AE000B7FC06003BE1200000F0F8FAA1782800AE
:104AF000FFF72CFBA94A137802210B431370012600
:104B00002DE1A64B5B7802AA063213700123210027
:104B1000280000F087FA012621E1A6789F4B5B78F8
:104B2000B3422CD09D4B5B78002B0CD19B4B5E701D
:104B3000002E22D031002800FFF798FC061E12D06C
:104B4000FFF7C2FD1BE000212800FFF75DFB2800F6
:104B5000FFF789FB914FBB7801932800FFF734FCE6
:104B6000019BBB70E2E7C92289498A489200FFF79E
:104B70000FFA8A4B00225A70F1E0FFF7A6FD2100E0
:104B8000280000F03BFA0126E9E021002800FFF7A9
:104B90002BFD0600E3E0A278E3781B021343012B10
:104BA00001D00026DBE07D4A137808210B43137007
:104BB0002100280000F022FA0126D0E0A278E37854
:104BC0001B021343012B01D00026C8E0734A13785F
:104BD00008218B4313702100280000F00FFA0126F2
:104BE000BDE06E4B1A78510992080223134001224E
:104BF0000A40134302AA0632138002232100280030
:104C000000F010FA0126AAE023790F2B00D9B1E0B9
:104C1000624AD3181B79624A1278934223D2614ABE
:104C200011685B01C918002900D1A5E02200280005
:104C3000FFF70EFC061E00D091E0237860221A4296
:104C400000D08CE063780A3B012B00D987E000207C
:104C500000F03EFA63780A2B0DD02100280000F006
:104C6000CDF901267BE0934200D987E09B1A5B01D6
:104C70004D495918DAE702AB9A1D0023137001332E
:104C80002100280000F0CEF9013668E021797F206C
:104C90000840CE0970230B4217D1404B40001B182F
:104CA0009B191B7D3E480078834215D23D4806681B
:104CB0005B01F618002A18D0002E61D022003100C6
:104CC0002800FFF7C5FB060049E031493148374A63
:104CD000FFF75EF9002642E0834204D81B1A5B010D
:104CE000314E9E19E6E70026E4E76378012B10D0E9
:104CF000032B0ED0002B45D12800FFF78DFE02AB11
:104D00009A1D108002232100280000F08BF9012653
:104D100025E0A078E2781202024304D1012B19D0D9
:104D20002800FFF745FE002E2ED02200310028007B
:104D3000FFF78EFB002000F0CBF9184B35229B5C6F
:104D4000DB07DE0F002B0AD12100280000F056F906
:104D5000012604E02800FFF745FEE4E700263000C6
:104D600005B0F0BD0026FAE70026F8E70026F6E7D2
:104D70000026F4E70026F2E70026F0E70026EEE73B
:104D80000026ECE70026EAE70126E8E78870001035
:104D90004071001060690010C5430010100F002022
:104DA000D8170020300E00208C71001095030000F1
:104DB00030B585B0FFF79CFC002808D105B030BDA8
:104DC00001AC2078FFF73EFB2279634B9A70634B6E
:104DD0001C686269EFF3108172B61368002BFCD077
:104DE000BFF35F8FA16101A9200000F007FE626997
:104DF000A369BFF35F8F0021116083F3108800283F
:104E0000DCD001AB5B78082BE1D89B00544AD35827
:104E10009F4601AB1878FFF715FBFFF756FCD6E766
:104E2000504B1B78002B2DD04E4A1378013BDBB240
:104E300013701378002BCAD1474B1A780124012133
:104E40000A431A703422995CA1439954995C042056
:104E5000814399540132995CA1439954995C8143EF
:104E6000995401AB187802A9FFF7E4FD0028AED1F0
:104E700001AC20780021FFF713FA20788021FFF79A
:104E80000FFAA4E738493948394AFFF781F895E71E
:104E900001AB19797F220A40CC092F4B50001B1817
:104EA0001B19303318790125A84318711879033577
:104EB000A8431871002A15D0274B52009B181B19C4
:104EC0001B7D2C4A1278934213D22B4A12685B0145
:104ED000D318002B14D09C6901A84279039B007859
:104EE000A04774E701A84279039B007800F004F919
:104EF0006DE7934204D89B1A5B01204A9B18EAE7AE
:104F0000A422194919489200FFF742F856E7124BBC
:104F10001B78DB0700D45AE70F4B18780007C00F47
:104F2000FFF7D4FB53E70C4B1B78DB0700D44EE7AD
:104F3000FFF7CDFB4BE7029B002B00D147E703981F
:104F4000984744E7044BDB78DB0700D43FE702983F
:104F5000FFF743FB3BE7C046100F0020680F00201F
:104F6000B0700010DA1700206C710010606900103A
:104F700065020000D8170020300E00208C71001050
:104F800010B50023CB56002B05DB80210023002227
:104F9000FFF7BCFC10BD0021F8E70000F8B50500E4
:104FA000144B9F89DE89BB1B9BB21C1C402B00D974
:104FB0004024A4B20F4B1B785BB2002B08DB00210E
:104FC000B74213D00C4A23002800FFF79FFCF8BD1E
:104FD000B74209D0074B9968402C09D806482200EF
:104FE000FDF77CFD8021EBE78021E9E70022EAE77D
:104FF0000020ECE7740E0020340E002070B506008F
:105000000D00074C08222000FDF768FD0023A36077
:10501000E381A38129003000FFF7B2FF70BDC046D5
:10502000740E0020F0B5C64600B580460C00160090
:105030001D001F4B08221F001800FDF74FFDBE602A
:105040000023FB81A379E179090219430B1CA942D2
:1050500000D92B1C99B2164A9381A279E3791B02DD
:10506000134319D0002901D0002E08D04046FFF785
:1050700095FF041E0AD0200080BCB846F0BD0D4943
:105080000D487222FEF784FF0024F4E709490A481C
:105090007422FEF77DFFEEE721004046FFF770FF28
:1050A000041EE8D1034904487622FEF771FFE2E7C7
:1050B000740E0020C47100106069001010B5034820
:1050C00014220021FDF704FD10BDC046740E00201F
:1050D000014B18617047C046740E002010B50100E6
:1050E000044C08222000FDF7F9FC0023A360E381B3
:1050F000A38110BD740E002070B505001C00C90905
:10510000314B1B78DB098B4216D0002C07D02F497E
:105110002F489D22FEF73CFF0024200070BD2A4C42
:105120002100FFF77FF82369002B03D0264A0321D3
:10513000280098470124F0E7234B1B785BB2002B33
:1051400007DB214B986800283CD022492200FDF75C
:10515000C5FC1D4AD389A1B25B189BB2D38191686B
:1051600009199160D288934201D03F2C1FD8164B69
:105170001B69002B05D0144A0221280098470028FB
:105180000BD011492800FFF7FBFE041EC5D10F49C3
:105190000F48C522FEF7FCFEBFE700212800FFF7FD
:1051A0007FF880212800FFF77BF80124B5E728006D
:1051B000FFF7F4FE041EB0D104490548CD22FEF7E6
:1051C000E7FEAAE70024A8E7740E0020AC710010E7
:1051D00060690010340E002070470120704770474E
:1051E0007047000010B50F4B4200101880001B18CC
:1051F0005C78FFF76DFA002801D1002010BDFFF7A1
:105200006FFA00280AD1002C01D10020F6E7210016
:10521000FFF7C0FB002803D10130EFE70020EDE7E6
:105220000020EBE7F80E0020F8B504000E00170090
:105230001D00002801D00020F8BD204B42001218AC
:1052400092009B1859780020FFF74CFB0028F3D000
:10525000002E22D01A496000021912018A18167411
:10526000001900011030401801300F2D22D82A00FB
:105270003900FDF733FC0135ADB263001A19120194
:1052800010320F4952180D491B199B00C918497853
:105290002B000020FFF73AFBCEE760000019000169
:1052A0001030074BC018102D06D82A003900FDF722
:1052B00015FCE2E70020BFE70020BDE7F80E002064
:1052C000C80E002030B583B004000D0019006B46F5
:1052D0001A7000225A7000290BD00632981CFDF774
:1052E000FDFB08236A4629002000FFF79DFF03B05D
:1052F00030BD06220021981CFDF7EAFBF1E7F0B56E
:1053000083B0170008AA0026965709AA002555570A
:105310000AAA002414576A46177053709670D57005
:1053200014710523FFF780FF03B0F0BD0120704723
:1053300010B503480C220021FDF7CAFB10BDC04682
:10534000F80E002010B50020FFF7F2FF10BD00009E
:10535000F0B585B005000E004B79032B6FD10B79AA
:10536000DC00E41AA4B21234A4B2944211D800238F
:10537000002B15D0002B1ED10393317871184B7878
:10538000212B1FD030493148ED22FEF701FE0024C9
:1053900056E02D492D48DB22FEF7FAFD00244FE0B0
:1053A0005A00D01880002A4947187A78002AE1D09C
:1053B0000133DBB2DCE724492448E622FEF7E8FDAE
:1053C00000243DE0B9600B78C91832797B1C019349
:1053D000BB1C009303232800FFF740FA002824D0C9
:1053E000B379012B28D00123BB71B3783B70BB6824
:1053F000DA791B7A1B021343BB80B97800291FD0CE
:10540000039B5A009C46624412012032114BD21871
:1054100010232800FFF77AFA002811D180220A49C8
:105420000A485200FEF7B4FD0AE007490748F22295
:10543000FEF7AEFD002403E0F379FB70D3E7002410
:10544000200005B0F0BDC046307200106069001049
:10545000F80E0020C80E0020F0B5C64600B582B098
:105460000600150010781F230340012B00D01CE11B
:1054700017790024002C0DD0FF24002C00D01AE155
:10548000270060231A00024003423AD101290BD0C1
:1054900001240BE18D4A63001B199B009B5C9F421A
:1054A000EBD00134E4B2E5E7EA786B78062B06D05E
:1054B000062B00D003E1222A13D00024F6E0212A93
:1054C000F6D1824B6200121992009B189A68002A4A
:1054D00000D1F2E0137829003000FFF7A3FD0400AB
:1054E000E4E02000FBF7CCF80200784B7900C91902
:1054F00089005B189B8829003000FFF793FD012489
:10550000D4E0202A00D0DCE06B780B2B00D9DAE065
:105510009B006F4AD3589F46012901D00124C5E062
:10552000EB789C46A97863001F193F01694BFF186F
:10553000A879EB791B020343181C102B00D910200B
:1055400080B2002908D0012B1AD97B1C3970013890
:1055500080B20122904602E03B000022904600907B
:1055600062462000FBF7BCF843461B189BB2002B99
:105570000AD03A0029003000FFF754FD012495E0DD
:105580003B0000229046EAE7362253495348FF3257
:10559000FEF7FEFC002489E0012903D0032914D082
:1055A000012483E0AA79EB791B021343102B01D964
:1055B00000247BE0620012191201464952182900AA
:1055C0003000FFF72FFD012470E0EA78A97863002E
:1055D0001B191B013F481B18A879ED792D020543C3
:1055E000281C102D00D9102080B2002904D0012DD4
:1055F00002D91D788D4205D000902000FBF772F88B
:10560000012453E00133013880B2F5E7012901D0CC
:1056100001244BE0E9782D4B6200121992009B188F
:10562000D9712000FFF7D9FD041E3FD029003000BA
:10563000FFF7E4FC3AE0012901D0012436E06200E2
:1056400012199200214BD218073201232900300091
:10565000FFF7E8FC012429E0012901D0012425E01D
:10566000620012199200194BD21806320123290048
:105670003000FFF7D7FC012418E0012903D00329EB
:1056800007D0012412E029003000FFF7B7FC012405
:105690000CE0A9780D4B6200121992009B189971C9
:1056A0002000FFF799FD012400E00024200002B053
:1056B00080BCB846F0BD0024F8E70024F6E70024DB
:1056C000F4E70024F2E70024F0E7C046F80E0020DB
:1056D000D8710010C80E0020187200106069001008
:1056E000F0B583B005001E000020002823D000285C
:1056F0002FD1070063788B4233D0002A4AD1430070
:105700001B181B0120332C4A9B18B6B200960222AC
:105710000021FAF7E7FF7A00D21912012032264B56
:10572000D218A17810232800FFF7F0F8041E3CD00F
:10573000200003B0F0BD44002418A4001F4BE4185F
:10574000A3788B42D3D063788B42D0D00130C0B2E3
:10575000CBE784221A491B48FF32FEF719FC0024CC
:10576000E6E7002A0AD14100091809011031124B5D
:10577000C918B2B2FFF733FD0124D9E7420012186D
:10578000120110320C4BD218B3B20121FFF728FDE1
:105790000124CDE74200121812012032064BD21824
:1057A000B3B20221FFF71CFDB5E7CB22044905483F
:1057B0005200FEF7EDFBBBE7C80E0020F80E0020FC
:1057C000087200106069001010B582B000290AD07C
:1057D00001281CD80B78002B19D0164A1354012B22
:1057E0001ED0012419E001A901230B7000234B7086
:1057F0000020FEF787FF041E03D00E4B01221A7013
:105800000BE00D490D484722FEF7C2FB05E00A49AF
:105810000A485A22FEF7BCFB0024200002B010BD4B
:10582000FEF770FF041EF8D1034904485F22FEF71B
:10583000AFFBF2E7040F0020507200106069001007
:1058400070B504000D000378DB07D80F002B1DD1C5
:1058500023785B07DE0F002B19DB0121494228006A
:1058600000F0C6F92378DB07DA0F002B07D1237885
:105870005B0709D4237804221343237001262800F0
:1058800000F08EF9300002E01600F8E7002070BD4D
:1058900010B5027943791B0213435B055B0DC27897
:1058A0009207920F022A14D0032A2DD0012A3CD14C
:1058B000022904D01E4A9A4204D3012036E08022F5
:1058C000D200F8E71B491C48D122FEF761FB0020FB
:1058D0002CE0022903D0402B0FD8012026E08022A3
:1058E0009200934201D1012020E012491248293A46
:1058F000FF3AFEF74DFB002018E00E490E48DB2270
:10590000FEF746FB002011E0022904D040229A4213
:1059100004D301200AE08022D200F8E705490648B6
:10592000E122FEF735FB002000E0002010BDC0465C
:10593000FF0300003C7200106069001030B58A1847
:1059400001E00C78091991420AD24C78052CF8D163
:105950008D787A342C4064000419ED096355F0E722
:1059600030BD03008A1890B2814202D85A0090429A
:1059700003DB5B009BB2C01A80B2704770B50500B4
:105980000800AC889A420BD3D11A89B200291ED0E4
:105990008C4210D2944209D8121B93B26B810AE058
:1059A000D11A89B26600891989B2EFE7A21893B2B9
:1059B000F4E71B1B9BB29C42FBD92968EA8852047E
:1059C000520C5343C918FDF789F8012070BD00201F
:1059D000FCE710B58488028993B2418988B291426C
:1059E00006D81B1A9BB20020A3424041C0B210BD92
:1059F0001B1A9BB262009B189BB2F4E770B50400BF
:105A00000D000069002803D00121494200F0F0F8A0
:105A1000228992B263899BB229002000FFF7AEFF72
:105A20000500618989B2A0882A00FFF79AFF60818A
:105A30002069002801D000F0B3F8280070BDF8B547
:105A400004000E00C068002803D00121494200F084
:105A5000CFF82589ADB22000FFF7BBFF002802D0A8
:105A6000E779FF0916D0A2882B0001E09B1A9BB2B0
:105A70009A42FBD92068E2885204520C5343C01862
:105A80003100FDF72BF8A08801222900FFF769FFFC
:105A900020810127E068002801D000F081F838005B
:105AA000F8BD10B50400C068002803D001214942A8
:105AB00000F09EF82069002803D00121494200F03F
:105AC00097F8002363812381E068002801D000F06B
:105AD00067F82069002801D000F062F8012010BDAD
